{
  "contractName": "PrescriptionAndDiagnosisCard",
  "abi": [
    {
      "anonymous": false,
      "inputs": [
        {
          "indexed": true,
          "internalType": "string",
          "name": "patientIdentifier",
          "type": "string"
        },
        {
          "indexed": false,
          "internalType": "string",
          "name": "diagnosticDetails",
          "type": "string"
        },
        {
          "indexed": false,
          "internalType": "string[]",
          "name": "medicationNames",
          "type": "string[]"
        },
        {
          "indexed": false,
          "internalType": "uint256",
          "name": "date",
          "type": "uint256"
        }
      ],
      "name": "PatientRecordAdded",
      "type": "event"
    },
    {
      "inputs": [
        {
          "internalType": "string",
          "name": "",
          "type": "string"
        },
        {
          "internalType": "uint256",
          "name": "",
          "type": "uint256"
        }
      ],
      "name": "patients",
      "outputs": [
        {
          "internalType": "string",
          "name": "diagnosticDetails",
          "type": "string"
        },
        {
          "internalType": "uint256",
          "name": "date",
          "type": "uint256"
        }
      ],
      "stateMutability": "view",
      "type": "function",
      "constant": true
    },
    {
      "inputs": [
        {
          "internalType": "string",
          "name": "patientIdentifier",
          "type": "string"
        },
        {
          "internalType": "string",
          "name": "_diagnosticDetails",
          "type": "string"
        },
        {
          "internalType": "string[]",
          "name": "_medicationNames",
          "type": "string[]"
        }
      ],
      "name": "addPatientRecord",
      "outputs": [],
      "stateMutability": "nonpayable",
      "type": "function"
    },
    {
      "inputs": [
        {
          "internalType": "string",
          "name": "patientIdentifier",
          "type": "string"
        }
      ],
      "name": "getPatientRecords",
      "outputs": [
        {
          "components": [
            {
              "internalType": "string",
              "name": "diagnosticDetails",
              "type": "string"
            },
            {
              "internalType": "string[]",
              "name": "medicationNames",
              "type": "string[]"
            },
            {
              "internalType": "uint256",
              "name": "date",
              "type": "uint256"
            }
          ],
          "internalType": "struct PrescriptionAndDiagnosisCard.PrescriptionAndDiagnosis[]",
          "name": "",
          "type": "tuple[]"
        }
      ],
      "stateMutability": "view",
      "type": "function",
      "constant": true
    }
  ],
  "bytecode": "0x608060405234801561001057600080fd5b50610e92806100206000396000f3fe608060405234801561001057600080fd5b50600436106100415760003560e01c80632b60de88146100465780635cd40af5146100625780637d79ae8514610092575b600080fd5b610060600480360381019061005b919061083f565b6100c3565b005b61007c600480360381019061007791906108e6565b6101c7565b6040516100899190610bab565b60405180910390f35b6100ac60048036038101906100a79190610bf9565b6103b9565b6040516100ba929190610cae565b60405180910390f35b600060405180606001604052808481526020018381526020014281525090506000846040516100f29190610d1a565b90815260200160405180910390208190806001815401808255809150506001900390600052602060002090600302016000909190919091506000820151816000019080519060200190610146929190610498565b50602082015181600101908051906020019061016392919061051e565b506040820151816002015550508360405161017e9190610d1a565b60405180910390207f3dde4cde21949608a5403e3cfcebf1d4399e6b713550bba8032889a14d38045e8484426040516101b993929190610db7565b60405180910390a250505050565b60606000826040516101d99190610d1a565b9081526020016040518091039020805480602002602001604051908101604052809291908181526020016000905b828210156103ae578382906000526020600020906003020160405180606001604052908160008201805461023a90610e2b565b80601f016020809104026020016040519081016040528092919081815260200182805461026690610e2b565b80156102b35780601f10610288576101008083540402835291602001916102b3565b820191906000526020600020905b81548152906001019060200180831161029657829003601f168201915b5050505050815260200160018201805480602002602001604051908101604052809291908181526020016000905b8282101561038d57838290600052602060002001805461030090610e2b565b80601f016020809104026020016040519081016040528092919081815260200182805461032c90610e2b565b80156103795780601f1061034e57610100808354040283529160200191610379565b820191906000526020600020905b81548152906001019060200180831161035c57829003601f168201915b5050505050815260200190600101906102e1565b50505050815260200160028201548152505081526020019060010190610207565b505050509050919050565b60008280516020810182018051848252602083016020850120818352809550505050505081815481106103eb57600080fd5b90600052602060002090600302016000915091505080600001805461040f90610e2b565b80601f016020809104026020016040519081016040528092919081815260200182805461043b90610e2b565b80156104885780601f1061045d57610100808354040283529160200191610488565b820191906000526020600020905b81548152906001019060200180831161046b57829003601f168201915b5050505050908060020154905082565b8280546104a490610e2b565b90600052602060002090601f0160209004810192826104c6576000855561050d565b82601f106104df57805160ff191683800117855561050d565b8280016001018555821561050d579182015b8281111561050c5782518255916020019190600101906104f1565b5b50905061051a919061057e565b5090565b82805482825590600052602060002090810192821561056d579160200282015b8281111561056c57825182908051906020019061055c929190610498565b509160200191906001019061053e565b5b50905061057a919061059b565b5090565b5b8082111561059757600081600090555060010161057f565b5090565b5b808211156105bb57600081816105b291906105bf565b5060010161059c565b5090565b5080546105cb90610e2b565b6000825580601f106105dd57506105fc565b601f0160209004906000526020600020908101906105fb919061057e565b5b50565b6000604051905090565b600080fd5b600080fd5b600080fd5b600080fd5b6000601f19601f8301169050919050565b7f4e487b7100000000000000000000000000000000000000000000000000000000600052604160045260246000fd5b6106668261061d565b810181811067ffffffffffffffff821117156106855761068461062e565b5b80604052505050565b60006106986105ff565b90506106a4828261065d565b919050565b600067ffffffffffffffff8211156106c4576106c361062e565b5b6106cd8261061d565b9050602081019050919050565b82818337600083830152505050565b60006106fc6106f7846106a9565b61068e565b90508281526020810184848401111561071857610717610618565b5b6107238482856106da565b509392505050565b600082601f8301126107405761073f610613565b5b81356107508482602086016106e9565b91505092915050565b600067ffffffffffffffff8211156107745761077361062e565b5b602082029050602081019050919050565b600080fd5b600061079d61079884610759565b61068e565b905080838252602082019050602084028301858111156107c0576107bf610785565b5b835b8181101561080757803567ffffffffffffffff8111156107e5576107e4610613565b5b8086016107f2898261072b565b855260208501945050506020810190506107c2565b5050509392505050565b600082601f83011261082657610825610613565b5b813561083684826020860161078a565b91505092915050565b60008060006060848603121561085857610857610609565b5b600084013567ffffffffffffffff8111156108765761087561060e565b5b6108828682870161072b565b935050602084013567ffffffffffffffff8111156108a3576108a261060e565b5b6108af8682870161072b565b925050604084013567ffffffffffffffff8111156108d0576108cf61060e565b5b6108dc86828701610811565b9150509250925092565b6000602082840312156108fc576108fb610609565b5b600082013567ffffffffffffffff81111561091a5761091961060e565b5b6109268482850161072b565b91505092915050565b600081519050919050565b600082825260208201905092915050565b6000819050602082019050919050565b600081519050919050565b600082825260208201905092915050565b60005b8381101561099557808201518184015260208101905061097a565b838111156109a4576000848401525b50505050565b60006109b58261095b565b6109bf8185610966565b93506109cf818560208601610977565b6109d88161061d565b840191505092915050565b600081519050919050565b600082825260208201905092915050565b6000819050602082019050919050565b6000610a1b83836109aa565b905092915050565b6000602082019050919050565b6000610a3b826109e3565b610a4581856109ee565b935083602082028501610a57856109ff565b8060005b85811015610a935784840389528151610a748582610a0f565b9450610a7f83610a23565b925060208a01995050600181019050610a5b565b50829750879550505050505092915050565b6000819050919050565b610ab881610aa5565b82525050565b60006060830160008301518482036000860152610adb82826109aa565b91505060208301518482036020860152610af58282610a30565b9150506040830151610b0a6040860182610aaf565b508091505092915050565b6000610b218383610abe565b905092915050565b6000602082019050919050565b6000610b418261092f565b610b4b818561093a565b935083602082028501610b5d8561094b565b8060005b85811015610b995784840389528151610b7a8582610b15565b9450610b8583610b29565b925060208a01995050600181019050610b61565b50829750879550505050505092915050565b60006020820190508181036000830152610bc58184610b36565b905092915050565b610bd681610aa5565b8114610be157600080fd5b50565b600081359050610bf381610bcd565b92915050565b60008060408385031215610c1057610c0f610609565b5b600083013567ffffffffffffffff811115610c2e57610c2d61060e565b5b610c3a8582860161072b565b9250506020610c4b85828601610be4565b9150509250929050565b600082825260208201905092915050565b6000610c718261095b565b610c7b8185610c55565b9350610c8b818560208601610977565b610c948161061d565b840191505092915050565b610ca881610aa5565b82525050565b60006040820190508181036000830152610cc88185610c66565b9050610cd76020830184610c9f565b9392505050565b600081905092915050565b6000610cf48261095b565b610cfe8185610cde565b9350610d0e818560208601610977565b80840191505092915050565b6000610d268284610ce9565b915081905092915050565b600082825260208201905092915050565b6000610d4d826109e3565b610d578185610d31565b935083602082028501610d69856109ff565b8060005b85811015610da55784840389528151610d868582610a0f565b9450610d9183610a23565b925060208a01995050600181019050610d6d565b50829750879550505050505092915050565b60006060820190508181036000830152610dd18186610c66565b90508181036020830152610de58185610d42565b9050610df46040830184610c9f565b949350505050565b7f4e487b7100000000000000000000000000000000000000000000000000000000600052602260045260246000fd5b60006002820490506001821680610e4357607f821691505b602082108103610e5657610e55610dfc565b5b5091905056fea2646970667358221220f996f16308ecf6f4df6223feed2238b9a8580b9de2dad0a9f04d33de3607a5d664736f6c634300080d0033",
  "immutableReferences": {},
  "source": "// SPDX-License-Identifier: MIT\r\npragma solidity >=0.8.2 <0.9.0;\r\n\r\ncontract PrescriptionAndDiagnosisCard {\r\n    \r\n    struct PrescriptionAndDiagnosis {\r\n        string diagnosticDetails;\r\n        string[] medicationNames;\r\n        uint256 date;\r\n    }\r\n\r\n    mapping(string => PrescriptionAndDiagnosis[]) public patients;\r\n\r\n    event PatientRecordAdded(string indexed patientIdentifier, string diagnosticDetails, string[] medicationNames, uint256 date);\r\n\r\n    function addPatientRecord(string memory patientIdentifier, string memory _diagnosticDetails, string[] memory _medicationNames) public {\r\n        PrescriptionAndDiagnosis memory record = PrescriptionAndDiagnosis({\r\n            diagnosticDetails: _diagnosticDetails,\r\n            medicationNames: _medicationNames,\r\n            date: block.timestamp\r\n        });\r\n\r\n        patients[patientIdentifier].push(record);\r\n\r\n        emit PatientRecordAdded(patientIdentifier, _diagnosticDetails, _medicationNames, block.timestamp);\r\n    }\r\n\r\n    function getPatientRecords(string memory patientIdentifier) public view returns (PrescriptionAndDiagnosis[] memory) {\r\n        return patients[patientIdentifier];\r\n    }\r\n}\r\n",
  "sourcePath": "D:\\GitHub WorkPlace\\PatientDataManagementSystem\\contracts\\PrescriptionAndDiagnosisCard.sol",
  "compiler": {
    "name": "solc",
    "version": "0.8.13+commit.abaa5c0e.Emscripten.clang"
  },
  "schemaVersion": "3.4.16",
  "updatedAt": "2023-10-27T08:21:57.778Z",
  "networkType": "ethereum",
  "devdoc": {
    "kind": "dev",
    "methods": {},
    "version": 1
  },
  "userdoc": {
    "kind": "user",
    "methods": {},
    "version": 1
  }
}